{
  "_format": "hh-sol-artifact-1",
  "contractName": "NFT",
  "sourceName": "contracts/NFT.sol",
  "abi": [
    {
      "inputs": [
        {
          "internalType": "address",
          "name": "marketplaceAddress",
          "type": "address"
        }
      ],
      "stateMutability": "nonpayable",
      "type": "constructor"
    },
    {
      "anonymous": false,
      "inputs": [
        {
          "indexed": true,
          "internalType": "address",
          "name": "owner",
          "type": "address"
        },
        {
          "indexed": true,
          "internalType": "address",
          "name": "approved",
          "type": "address"
        },
        {
          "indexed": true,
          "internalType": "uint256",
          "name": "tokenId",
          "type": "uint256"
        }
      ],
      "name": "Approval",
      "type": "event"
    },
    {
      "anonymous": false,
      "inputs": [
        {
          "indexed": true,
          "internalType": "address",
          "name": "owner",
          "type": "address"
        },
        {
          "indexed": true,
          "internalType": "address",
          "name": "operator",
          "type": "address"
        },
        {
          "indexed": false,
          "internalType": "bool",
          "name": "approved",
          "type": "bool"
        }
      ],
      "name": "ApprovalForAll",
      "type": "event"
    },
    {
      "anonymous": false,
      "inputs": [
        {
          "indexed": true,
          "internalType": "address",
          "name": "from",
          "type": "address"
        },
        {
          "indexed": true,
          "internalType": "address",
          "name": "to",
          "type": "address"
        },
        {
          "indexed": true,
          "internalType": "uint256",
          "name": "tokenId",
          "type": "uint256"
        }
      ],
      "name": "Transfer",
      "type": "event"
    },
    {
      "inputs": [
        {
          "internalType": "address",
          "name": "to",
          "type": "address"
        },
        {
          "internalType": "uint256",
          "name": "tokenId",
          "type": "uint256"
        }
      ],
      "name": "approve",
      "outputs": [],
      "stateMutability": "nonpayable",
      "type": "function"
    },
    {
      "inputs": [
        {
          "internalType": "address",
          "name": "owner",
          "type": "address"
        }
      ],
      "name": "balanceOf",
      "outputs": [
        {
          "internalType": "uint256",
          "name": "",
          "type": "uint256"
        }
      ],
      "stateMutability": "view",
      "type": "function"
    },
    {
      "inputs": [
        {
          "internalType": "string",
          "name": "tokenURI",
          "type": "string"
        }
      ],
      "name": "createToken",
      "outputs": [
        {
          "internalType": "uint256",
          "name": "",
          "type": "uint256"
        }
      ],
      "stateMutability": "nonpayable",
      "type": "function"
    },
    {
      "inputs": [
        {
          "internalType": "uint256",
          "name": "tokenId",
          "type": "uint256"
        }
      ],
      "name": "getApproved",
      "outputs": [
        {
          "internalType": "address",
          "name": "",
          "type": "address"
        }
      ],
      "stateMutability": "view",
      "type": "function"
    },
    {
      "inputs": [
        {
          "internalType": "address",
          "name": "owner",
          "type": "address"
        },
        {
          "internalType": "address",
          "name": "operator",
          "type": "address"
        }
      ],
      "name": "isApprovedForAll",
      "outputs": [
        {
          "internalType": "bool",
          "name": "",
          "type": "bool"
        }
      ],
      "stateMutability": "view",
      "type": "function"
    },
    {
      "inputs": [],
      "name": "name",
      "outputs": [
        {
          "internalType": "string",
          "name": "",
          "type": "string"
        }
      ],
      "stateMutability": "view",
      "type": "function"
    },
    {
      "inputs": [
        {
          "internalType": "uint256",
          "name": "tokenId",
          "type": "uint256"
        }
      ],
      "name": "ownerOf",
      "outputs": [
        {
          "internalType": "address",
          "name": "",
          "type": "address"
        }
      ],
      "stateMutability": "view",
      "type": "function"
    },
    {
      "inputs": [
        {
          "internalType": "address",
          "name": "from",
          "type": "address"
        },
        {
          "internalType": "address",
          "name": "to",
          "type": "address"
        },
        {
          "internalType": "uint256",
          "name": "tokenId",
          "type": "uint256"
        }
      ],
      "name": "safeTransferFrom",
      "outputs": [],
      "stateMutability": "nonpayable",
      "type": "function"
    },
    {
      "inputs": [
        {
          "internalType": "address",
          "name": "from",
          "type": "address"
        },
        {
          "internalType": "address",
          "name": "to",
          "type": "address"
        },
        {
          "internalType": "uint256",
          "name": "tokenId",
          "type": "uint256"
        },
        {
          "internalType": "bytes",
          "name": "_data",
          "type": "bytes"
        }
      ],
      "name": "safeTransferFrom",
      "outputs": [],
      "stateMutability": "nonpayable",
      "type": "function"
    },
    {
      "inputs": [
        {
          "internalType": "address",
          "name": "operator",
          "type": "address"
        },
        {
          "internalType": "bool",
          "name": "approved",
          "type": "bool"
        }
      ],
      "name": "setApprovalForAll",
      "outputs": [],
      "stateMutability": "nonpayable",
      "type": "function"
    },
    {
      "inputs": [
        {
          "internalType": "bytes4",
          "name": "interfaceId",
          "type": "bytes4"
        }
      ],
      "name": "supportsInterface",
      "outputs": [
        {
          "internalType": "bool",
          "name": "",
          "type": "bool"
        }
      ],
      "stateMutability": "view",
      "type": "function"
    },
    {
      "inputs": [],
      "name": "symbol",
      "outputs": [
        {
          "internalType": "string",
          "name": "",
          "type": "string"
        }
      ],
      "stateMutability": "view",
      "type": "function"
    },
    {
      "inputs": [
        {
          "internalType": "uint256",
          "name": "tokenId",
          "type": "uint256"
        }
      ],
      "name": "tokenURI",
      "outputs": [
        {
          "internalType": "string",
          "name": "",
          "type": "string"
        }
      ],
      "stateMutability": "view",
      "type": "function"
    },
    {
      "inputs": [
        {
          "internalType": "address",
          "name": "from",
          "type": "address"
        },
        {
          "internalType": "address",
          "name": "to",
          "type": "address"
        },
        {
          "internalType": "uint256",
          "name": "tokenId",
          "type": "uint256"
        }
      ],
      "name": "transferFrom",
      "outputs": [],
      "stateMutability": "nonpayable",
      "type": "function"
    },
    {
      "inputs": [
        {
          "internalType": "address",
          "name": "from",
          "type": "address"
        },
        {
          "internalType": "address",
          "name": "to",
          "type": "address"
        },
        {
          "internalType": "uint256",
          "name": "tokenId",
          "type": "uint256"
        }
      ],
      "name": "transferToken",
      "outputs": [],
      "stateMutability": "nonpayable",
      "type": "function"
    }
  ],
  "bytecode": "0x60806040523480156200001157600080fd5b5060405162002fa138038062002fa18339818101604052810190620000379190620001e6565b6040518060400160405280601081526020017f4d657461766572736520546f6b656e73000000000000000000000000000000008152506040518060400160405280600481526020017f4d455454000000000000000000000000000000000000000000000000000000008152508160009080519060200190620000bb9291906200011f565b508060019080519060200190620000d49291906200011f565b50505080600860006101000a81548173ffffffffffffffffffffffffffffffffffffffff021916908373ffffffffffffffffffffffffffffffffffffffff16021790555050620002c5565b8280546200012d9062000246565b90600052602060002090601f0160209004810192826200015157600085556200019d565b82601f106200016c57805160ff19168380011785556200019d565b828001600101855582156200019d579182015b828111156200019c5782518255916020019190600101906200017f565b5b509050620001ac9190620001b0565b5090565b5b80821115620001cb576000816000905550600101620001b1565b5090565b600081519050620001e081620002ab565b92915050565b600060208284031215620001f957600080fd5b60006200020984828501620001cf565b91505092915050565b60006200021f8262000226565b9050919050565b600073ffffffffffffffffffffffffffffffffffffffff82169050919050565b600060028204905060018216806200025f57607f821691505b602082108114156200027657620002756200027c565b5b50919050565b7f4e487b7100000000000000000000000000000000000000000000000000000000600052602260045260246000fd5b620002b68162000212565b8114620002c257600080fd5b50565b612ccc80620002d56000396000f3fe608060405234801561001057600080fd5b50600436106100f55760003560e01c80636352211e11610097578063b88d4fde11610066578063b88d4fde14610296578063c87b56dd146102b2578063e985e9c5146102e2578063f5537ede14610312576100f5565b80636352211e146101fc57806370a082311461022c57806395d89b411461025c578063a22cb4651461027a576100f5565b8063095ea7b3116100d3578063095ea7b31461017857806323b872dd1461019457806342842e0e146101b057806345576f94146101cc576100f5565b806301ffc9a7146100fa57806306fdde031461012a578063081812fc14610148575b600080fd5b610114600480360381019061010f9190611ccc565b61032e565b6040516101219190612136565b60405180910390f35b610132610410565b60405161013f9190612151565b60405180910390f35b610162600480360381019061015d9190611d5f565b6104a2565b60405161016f91906120cf565b60405180910390f35b610192600480360381019061018d9190611c90565b610527565b005b6101ae60048036038101906101a99190611b8a565b61063f565b005b6101ca60048036038101906101c59190611b8a565b61069f565b005b6101e660048036038101906101e19190611d1e565b6106bf565b6040516101f39190612393565b60405180910390f35b61021660048036038101906102119190611d5f565b610723565b60405161022391906120cf565b60405180910390f35b61024660048036038101906102419190611b25565b6107d5565b6040516102539190612393565b60405180910390f35b61026461088d565b6040516102719190612151565b60405180910390f35b610294600480360381019061028f9190611c54565b61091f565b005b6102b060048036038101906102ab9190611bd9565b610935565b005b6102cc60048036038101906102c79190611d5f565b610997565b6040516102d99190612151565b60405180910390f35b6102fc60048036038101906102f79190611b4e565b610ae9565b6040516103099190612136565b60405180910390f35b61032c60048036038101906103279190611b8a565b610b7d565b005b60007f80ac58cd000000000000000000000000000000000000000000000000000000007bffffffffffffffffffffffffffffffffffffffffffffffffffffffff1916827bffffffffffffffffffffffffffffffffffffffffffffffffffffffff191614806103f957507f5b5e139f000000000000000000000000000000000000000000000000000000007bffffffffffffffffffffffffffffffffffffffffffffffffffffffff1916827bffffffffffffffffffffffffffffffffffffffffffffffffffffffff1916145b80610409575061040882610c03565b5b9050919050565b60606000805461041f906125e9565b80601f016020809104026020016040519081016040528092919081815260200182805461044b906125e9565b80156104985780601f1061046d57610100808354040283529160200191610498565b820191906000526020600020905b81548152906001019060200180831161047b57829003601f168201915b5050505050905090565b60006104ad82610c6d565b6104ec576040517f08c379a00000000000000000000000000000000000000000000000000000000081526004016104e3906122f3565b60405180910390fd5b6004600083815260200190815260200160002060009054906101000a900473ffffffffffffffffffffffffffffffffffffffff169050919050565b600061053282610723565b90508073ffffffffffffffffffffffffffffffffffffffff168373ffffffffffffffffffffffffffffffffffffffff1614156105a3576040517f08c379a000000000000000000000000000000000000000000000000000000000815260040161059a90612333565b60405180910390fd5b8073ffffffffffffffffffffffffffffffffffffffff166105c2610cd9565b73ffffffffffffffffffffffffffffffffffffffff1614806105f157506105f0816105eb610cd9565b610ae9565b5b610630576040517f08c379a000000000000000000000000000000000000000000000000000000000815260040161062790612233565b60405180910390fd5b61063a8383610ce1565b505050565b61065061064a610cd9565b82610d9a565b61068f576040517f08c379a000000000000000000000000000000000000000000000000000000000815260040161068690612353565b60405180910390fd5b61069a838383610e78565b505050565b6106ba83838360405180602001604052806000815250610935565b505050565b60006106cb60076110df565b60006106d760076110f5565b90506106e33382611103565b6106ed81846112dd565b61071a600860009054906101000a900473ffffffffffffffffffffffffffffffffffffffff16600161091f565b80915050919050565b6000806002600084815260200190815260200160002060009054906101000a900473ffffffffffffffffffffffffffffffffffffffff169050600073ffffffffffffffffffffffffffffffffffffffff168173ffffffffffffffffffffffffffffffffffffffff1614156107cc576040517f08c379a00000000000000000000000000000000000000000000000000000000081526004016107c390612273565b60405180910390fd5b80915050919050565b60008073ffffffffffffffffffffffffffffffffffffffff168273ffffffffffffffffffffffffffffffffffffffff161415610846576040517f08c379a000000000000000000000000000000000000000000000000000000000815260040161083d90612253565b60405180910390fd5b600360008373ffffffffffffffffffffffffffffffffffffffff1673ffffffffffffffffffffffffffffffffffffffff168152602001908152602001600020549050919050565b60606001805461089c906125e9565b80601f01602080910402602001604051908101604052809291908181526020018280546108c8906125e9565b80156109155780601f106108ea57610100808354040283529160200191610915565b820191906000526020600020905b8154815290600101906020018083116108f857829003601f168201915b5050505050905090565b61093161092a610cd9565b8383611351565b5050565b610946610940610cd9565b83610d9a565b610985576040517f08c379a000000000000000000000000000000000000000000000000000000000815260040161097c90612353565b60405180910390fd5b610991848484846114be565b50505050565b60606109a282610c6d565b6109e1576040517f08c379a00000000000000000000000000000000000000000000000000000000081526004016109d8906122d3565b60405180910390fd5b6000600660008481526020019081526020016000208054610a01906125e9565b80601f0160208091040260200160405190810160405280929190818152602001828054610a2d906125e9565b8015610a7a5780601f10610a4f57610100808354040283529160200191610a7a565b820191906000526020600020905b815481529060010190602001808311610a5d57829003601f168201915b505050505090506000610a8b61151a565b9050600081511415610aa1578192505050610ae4565b600082511115610ad6578082604051602001610abe9291906120ab565b60405160208183030381529060405292505050610ae4565b610adf84611531565b925050505b919050565b6000600560008473ffffffffffffffffffffffffffffffffffffffff1673ffffffffffffffffffffffffffffffffffffffff16815260200190815260200160002060008373ffffffffffffffffffffffffffffffffffffffff1673ffffffffffffffffffffffffffffffffffffffff16815260200190815260200160002060009054906101000a900460ff16905092915050565b8273ffffffffffffffffffffffffffffffffffffffff16610b9d82610723565b73ffffffffffffffffffffffffffffffffffffffff1614610bf3576040517f08c379a0000000000000000000000000000000000000000000000000000000008152600401610bea90612373565b60405180910390fd5b610bfe838383610e78565b505050565b60007f01ffc9a7000000000000000000000000000000000000000000000000000000007bffffffffffffffffffffffffffffffffffffffffffffffffffffffff1916827bffffffffffffffffffffffffffffffffffffffffffffffffffffffff1916149050919050565b60008073ffffffffffffffffffffffffffffffffffffffff166002600084815260200190815260200160002060009054906101000a900473ffffffffffffffffffffffffffffffffffffffff1673ffffffffffffffffffffffffffffffffffffffff1614159050919050565b600033905090565b816004600083815260200190815260200160002060006101000a81548173ffffffffffffffffffffffffffffffffffffffff021916908373ffffffffffffffffffffffffffffffffffffffff160217905550808273ffffffffffffffffffffffffffffffffffffffff16610d5483610723565b73ffffffffffffffffffffffffffffffffffffffff167f8c5be1e5ebec7d5bd14f71427d1e84f3dd0314c0f7b2291e5b200ac8c7c3b92560405160405180910390a45050565b6000610da582610c6d565b610de4576040517f08c379a0000000000000000000000000000000000000000000000000000000008152600401610ddb90612213565b60405180910390fd5b6000610def83610723565b90508073ffffffffffffffffffffffffffffffffffffffff168473ffffffffffffffffffffffffffffffffffffffff161480610e5e57508373ffffffffffffffffffffffffffffffffffffffff16610e46846104a2565b73ffffffffffffffffffffffffffffffffffffffff16145b80610e6f5750610e6e8185610ae9565b5b91505092915050565b8273ffffffffffffffffffffffffffffffffffffffff16610e9882610723565b73ffffffffffffffffffffffffffffffffffffffff1614610eee576040517f08c379a0000000000000000000000000000000000000000000000000000000008152600401610ee590612193565b60405180910390fd5b600073ffffffffffffffffffffffffffffffffffffffff168273ffffffffffffffffffffffffffffffffffffffff161415610f5e576040517f08c379a0000000000000000000000000000000000000000000000000000000008152600401610f55906121d3565b60405180910390fd5b610f698383836115d8565b610f74600082610ce1565b6001600360008573ffffffffffffffffffffffffffffffffffffffff1673ffffffffffffffffffffffffffffffffffffffff1681526020019081526020016000206000828254610fc491906124ff565b925050819055506001600360008473ffffffffffffffffffffffffffffffffffffffff1673ffffffffffffffffffffffffffffffffffffffff168152602001908152602001600020600082825461101b9190612478565b92505081905550816002600083815260200190815260200160002060006101000a81548173ffffffffffffffffffffffffffffffffffffffff021916908373ffffffffffffffffffffffffffffffffffffffff160217905550808273ffffffffffffffffffffffffffffffffffffffff168473ffffffffffffffffffffffffffffffffffffffff167fddf252ad1be2c89b69c2b068fc378daa952ba7f163c4a11628f55a4df523b3ef60405160405180910390a46110da8383836115dd565b505050565b6001816000016000828254019250508190555050565b600081600001549050919050565b600073ffffffffffffffffffffffffffffffffffffffff168273ffffffffffffffffffffffffffffffffffffffff161415611173576040517f08c379a000000000000000000000000000000000000000000000000000000000815260040161116a906122b3565b60405180910390fd5b61117c81610c6d565b156111bc576040517f08c379a00000000000000000000000000000000000000000000000000000000081526004016111b3906121b3565b60405180910390fd5b6111c8600083836115d8565b6001600360008473ffffffffffffffffffffffffffffffffffffffff1673ffffffffffffffffffffffffffffffffffffffff16815260200190815260200160002060008282546112189190612478565b92505081905550816002600083815260200190815260200160002060006101000a81548173ffffffffffffffffffffffffffffffffffffffff021916908373ffffffffffffffffffffffffffffffffffffffff160217905550808273ffffffffffffffffffffffffffffffffffffffff16600073ffffffffffffffffffffffffffffffffffffffff167fddf252ad1be2c89b69c2b068fc378daa952ba7f163c4a11628f55a4df523b3ef60405160405180910390a46112d9600083836115dd565b5050565b6112e682610c6d565b611325576040517f08c379a000000000000000000000000000000000000000000000000000000000815260040161131c90612293565b60405180910390fd5b8060066000848152602001908152602001600020908051906020019061134c929190611949565b505050565b8173ffffffffffffffffffffffffffffffffffffffff168373ffffffffffffffffffffffffffffffffffffffff1614156113c0576040517f08c379a00000000000000000000000000000000000000000000000000000000081526004016113b7906121f3565b60405180910390fd5b80600560008573ffffffffffffffffffffffffffffffffffffffff1673ffffffffffffffffffffffffffffffffffffffff16815260200190815260200160002060008473ffffffffffffffffffffffffffffffffffffffff1673ffffffffffffffffffffffffffffffffffffffff16815260200190815260200160002060006101000a81548160ff0219169083151502179055508173ffffffffffffffffffffffffffffffffffffffff168373ffffffffffffffffffffffffffffffffffffffff167f17307eab39ab6107e8899845ad3d59bd9653f200f220920489ca2b5937696c31836040516114b19190612136565b60405180910390a3505050565b6114c9848484610e78565b6114d5848484846115e2565b611514576040517f08c379a000000000000000000000000000000000000000000000000000000000815260040161150b90612173565b60405180910390fd5b50505050565b606060405180602001604052806000815250905090565b606061153c82610c6d565b61157b576040517f08c379a000000000000000000000000000000000000000000000000000000000815260040161157290612313565b60405180910390fd5b600061158561151a565b905060008151116115a557604051806020016040528060008152506115d0565b806115af84611779565b6040516020016115c09291906120ab565b6040516020818303038152906040525b915050919050565b505050565b505050565b60006116038473ffffffffffffffffffffffffffffffffffffffff16611926565b1561176c578373ffffffffffffffffffffffffffffffffffffffff1663150b7a0261162c610cd9565b8786866040518563ffffffff1660e01b815260040161164e94939291906120ea565b602060405180830381600087803b15801561166857600080fd5b505af192505050801561169957506040513d601f19601f820116820180604052508101906116969190611cf5565b60015b61171c573d80600081146116c9576040519150601f19603f3d011682016040523d82523d6000602084013e6116ce565b606091505b50600081511415611714576040517f08c379a000000000000000000000000000000000000000000000000000000000815260040161170b90612173565b60405180910390fd5b805181602001fd5b63150b7a0260e01b7bffffffffffffffffffffffffffffffffffffffffffffffffffffffff1916817bffffffffffffffffffffffffffffffffffffffffffffffffffffffff191614915050611771565b600190505b949350505050565b606060008214156117c1576040518060400160405280600181526020017f30000000000000000000000000000000000000000000000000000000000000008152509050611921565b600082905060005b600082146117f35780806117dc9061264c565b915050600a826117ec91906124ce565b91506117c9565b60008167ffffffffffffffff811115611835577f4e487b7100000000000000000000000000000000000000000000000000000000600052604160045260246000fd5b6040519080825280601f01601f1916602001820160405280156118675781602001600182028036833780820191505090505b5090505b6000851461191a5760018261188091906124ff565b9150600a8561188f9190612695565b603061189b9190612478565b60f81b8183815181106118d7577f4e487b7100000000000000000000000000000000000000000000000000000000600052603260045260246000fd5b60200101907effffffffffffffffffffffffffffffffffffffffffffffffffffffffffffff1916908160001a905350600a8561191391906124ce565b945061186b565b8093505050505b919050565b6000808273ffffffffffffffffffffffffffffffffffffffff163b119050919050565b828054611955906125e9565b90600052602060002090601f01602090048101928261197757600085556119be565b82601f1061199057805160ff19168380011785556119be565b828001600101855582156119be579182015b828111156119bd5782518255916020019190600101906119a2565b5b5090506119cb91906119cf565b5090565b5b808211156119e85760008160009055506001016119d0565b5090565b60006119ff6119fa846123d3565b6123ae565b905082815260208101848484011115611a1757600080fd5b611a228482856125a7565b509392505050565b6000611a3d611a3884612404565b6123ae565b905082815260208101848484011115611a5557600080fd5b611a608482856125a7565b509392505050565b600081359050611a7781612c3a565b92915050565b600081359050611a8c81612c51565b92915050565b600081359050611aa181612c68565b92915050565b600081519050611ab681612c68565b92915050565b600082601f830112611acd57600080fd5b8135611add8482602086016119ec565b91505092915050565b600082601f830112611af757600080fd5b8135611b07848260208601611a2a565b91505092915050565b600081359050611b1f81612c7f565b92915050565b600060208284031215611b3757600080fd5b6000611b4584828501611a68565b91505092915050565b60008060408385031215611b6157600080fd5b6000611b6f85828601611a68565b9250506020611b8085828601611a68565b9150509250929050565b600080600060608486031215611b9f57600080fd5b6000611bad86828701611a68565b9350506020611bbe86828701611a68565b9250506040611bcf86828701611b10565b9150509250925092565b60008060008060808587031215611bef57600080fd5b6000611bfd87828801611a68565b9450506020611c0e87828801611a68565b9350506040611c1f87828801611b10565b925050606085013567ffffffffffffffff811115611c3c57600080fd5b611c4887828801611abc565b91505092959194509250565b60008060408385031215611c6757600080fd5b6000611c7585828601611a68565b9250506020611c8685828601611a7d565b9150509250929050565b60008060408385031215611ca357600080fd5b6000611cb185828601611a68565b9250506020611cc285828601611b10565b9150509250929050565b600060208284031215611cde57600080fd5b6000611cec84828501611a92565b91505092915050565b600060208284031215611d0757600080fd5b6000611d1584828501611aa7565b91505092915050565b600060208284031215611d3057600080fd5b600082013567ffffffffffffffff811115611d4a57600080fd5b611d5684828501611ae6565b91505092915050565b600060208284031215611d7157600080fd5b6000611d7f84828501611b10565b91505092915050565b611d9181612533565b82525050565b611da081612545565b82525050565b6000611db182612435565b611dbb818561244b565b9350611dcb8185602086016125b6565b611dd481612782565b840191505092915050565b6000611dea82612440565b611df4818561245c565b9350611e048185602086016125b6565b611e0d81612782565b840191505092915050565b6000611e2382612440565b611e2d818561246d565b9350611e3d8185602086016125b6565b80840191505092915050565b6000611e5660328361245c565b9150611e6182612793565b604082019050919050565b6000611e7960258361245c565b9150611e84826127e2565b604082019050919050565b6000611e9c601c8361245c565b9150611ea782612831565b602082019050919050565b6000611ebf60248361245c565b9150611eca8261285a565b604082019050919050565b6000611ee260198361245c565b9150611eed826128a9565b602082019050919050565b6000611f05602c8361245c565b9150611f10826128d2565b604082019050919050565b6000611f2860388361245c565b9150611f3382612921565b604082019050919050565b6000611f4b602a8361245c565b9150611f5682612970565b604082019050919050565b6000611f6e60298361245c565b9150611f79826129bf565b604082019050919050565b6000611f91602e8361245c565b9150611f9c82612a0e565b604082019050919050565b6000611fb460208361245c565b9150611fbf82612a5d565b602082019050919050565b6000611fd760318361245c565b9150611fe282612a86565b604082019050919050565b6000611ffa602c8361245c565b915061200582612ad5565b604082019050919050565b600061201d602f8361245c565b915061202882612b24565b604082019050919050565b600061204060218361245c565b915061204b82612b73565b604082019050919050565b600061206360318361245c565b915061206e82612bc2565b604082019050919050565b600061208660208361245c565b915061209182612c11565b602082019050919050565b6120a58161259d565b82525050565b60006120b78285611e18565b91506120c38284611e18565b91508190509392505050565b60006020820190506120e46000830184611d88565b92915050565b60006080820190506120ff6000830187611d88565b61210c6020830186611d88565b612119604083018561209c565b818103606083015261212b8184611da6565b905095945050505050565b600060208201905061214b6000830184611d97565b92915050565b6000602082019050818103600083015261216b8184611ddf565b905092915050565b6000602082019050818103600083015261218c81611e49565b9050919050565b600060208201905081810360008301526121ac81611e6c565b9050919050565b600060208201905081810360008301526121cc81611e8f565b9050919050565b600060208201905081810360008301526121ec81611eb2565b9050919050565b6000602082019050818103600083015261220c81611ed5565b9050919050565b6000602082019050818103600083015261222c81611ef8565b9050919050565b6000602082019050818103600083015261224c81611f1b565b9050919050565b6000602082019050818103600083015261226c81611f3e565b9050919050565b6000602082019050818103600083015261228c81611f61565b9050919050565b600060208201905081810360008301526122ac81611f84565b9050919050565b600060208201905081810360008301526122cc81611fa7565b9050919050565b600060208201905081810360008301526122ec81611fca565b9050919050565b6000602082019050818103600083015261230c81611fed565b9050919050565b6000602082019050818103600083015261232c81612010565b9050919050565b6000602082019050818103600083015261234c81612033565b9050919050565b6000602082019050818103600083015261236c81612056565b9050919050565b6000602082019050818103600083015261238c81612079565b9050919050565b60006020820190506123a8600083018461209c565b92915050565b60006123b86123c9565b90506123c4828261261b565b919050565b6000604051905090565b600067ffffffffffffffff8211156123ee576123ed612753565b5b6123f782612782565b9050602081019050919050565b600067ffffffffffffffff82111561241f5761241e612753565b5b61242882612782565b9050602081019050919050565b600081519050919050565b600081519050919050565b600082825260208201905092915050565b600082825260208201905092915050565b600081905092915050565b60006124838261259d565b915061248e8361259d565b9250827fffffffffffffffffffffffffffffffffffffffffffffffffffffffffffffffff038211156124c3576124c26126c6565b5b828201905092915050565b60006124d98261259d565b91506124e48361259d565b9250826124f4576124f36126f5565b5b828204905092915050565b600061250a8261259d565b91506125158361259d565b925082821015612528576125276126c6565b5b828203905092915050565b600061253e8261257d565b9050919050565b60008115159050919050565b60007fffffffff0000000000000000000000000000000000000000000000000000000082169050919050565b600073ffffffffffffffffffffffffffffffffffffffff82169050919050565b6000819050919050565b82818337600083830152505050565b60005b838110156125d45780820151818401526020810190506125b9565b838111156125e3576000848401525b50505050565b6000600282049050600182168061260157607f821691505b6020821081141561261557612614612724565b5b50919050565b61262482612782565b810181811067ffffffffffffffff8211171561264357612642612753565b5b80604052505050565b60006126578261259d565b91507fffffffffffffffffffffffffffffffffffffffffffffffffffffffffffffffff82141561268a576126896126c6565b5b600182019050919050565b60006126a08261259d565b91506126ab8361259d565b9250826126bb576126ba6126f5565b5b828206905092915050565b7f4e487b7100000000000000000000000000000000000000000000000000000000600052601160045260246000fd5b7f4e487b7100000000000000000000000000000000000000000000000000000000600052601260045260246000fd5b7f4e487b7100000000000000000000000000000000000000000000000000000000600052602260045260246000fd5b7f4e487b7100000000000000000000000000000000000000000000000000000000600052604160045260246000fd5b6000601f19601f8301169050919050565b7f4552433732313a207472616e7366657220746f206e6f6e20455243373231526560008201527f63656976657220696d706c656d656e7465720000000000000000000000000000602082015250565b7f4552433732313a207472616e736665722066726f6d20696e636f72726563742060008201527f6f776e6572000000000000000000000000000000000000000000000000000000602082015250565b7f4552433732313a20746f6b656e20616c7265616479206d696e74656400000000600082015250565b7f4552433732313a207472616e7366657220746f20746865207a65726f2061646460008201527f7265737300000000000000000000000000000000000000000000000000000000602082015250565b7f4552433732313a20617070726f766520746f2063616c6c657200000000000000600082015250565b7f4552433732313a206f70657261746f7220717565727920666f72206e6f6e657860008201527f697374656e7420746f6b656e0000000000000000000000000000000000000000602082015250565b7f4552433732313a20617070726f76652063616c6c6572206973206e6f74206f7760008201527f6e6572206e6f7220617070726f76656420666f7220616c6c0000000000000000602082015250565b7f4552433732313a2062616c616e636520717565727920666f7220746865207a6560008201527f726f206164647265737300000000000000000000000000000000000000000000602082015250565b7f4552433732313a206f776e657220717565727920666f72206e6f6e657869737460008201527f656e7420746f6b656e0000000000000000000000000000000000000000000000602082015250565b7f45524337323155524953746f726167653a2055524920736574206f66206e6f6e60008201527f6578697374656e7420746f6b656e000000000000000000000000000000000000602082015250565b7f4552433732313a206d696e7420746f20746865207a65726f2061646472657373600082015250565b7f45524337323155524953746f726167653a2055524920717565727920666f722060008201527f6e6f6e6578697374656e7420746f6b656e000000000000000000000000000000602082015250565b7f4552433732313a20617070726f76656420717565727920666f72206e6f6e657860008201527f697374656e7420746f6b656e0000000000000000000000000000000000000000602082015250565b7f4552433732314d657461646174613a2055524920717565727920666f72206e6f60008201527f6e6578697374656e7420746f6b656e0000000000000000000000000000000000602082015250565b7f4552433732313a20617070726f76616c20746f2063757272656e74206f776e6560008201527f7200000000000000000000000000000000000000000000000000000000000000602082015250565b7f4552433732313a207472616e736665722063616c6c6572206973206e6f74206f60008201527f776e6572206e6f7220617070726f766564000000000000000000000000000000602082015250565b7f46726f6d2061646472657373206d75737420626520746f6b656e206f776e6572600082015250565b612c4381612533565b8114612c4e57600080fd5b50565b612c5a81612545565b8114612c6557600080fd5b50565b612c7181612551565b8114612c7c57600080fd5b50565b612c888161259d565b8114612c9357600080fd5b5056fea26469706673582212200a606c67053bfa961fd4b89982af44a43a5a9f47e06cbaa485e2650416e9a51f64736f6c63430008040033",
  "linkReferences": {},
  "deployedLinkReferences": {}
}